:020000040000FA
:0600000025EF02F01200E2
:020006000000F8
:08000800D9CFE6FFE1CFD9FFDB
:10001000050EE1269280936A7F0E956E8A6A98D8C3
:10002000CFD8680EE66E030EE66EA8D8E552E5520C
:10003000E66ACCD8E552DE52F3CFDEFFF4CFDDFF27
:10004000DD52010EDBCF0BF0020EDBCF0CF0000E09
:100050000B5C020E0C5862E27F0E8A6E8314DF6E18
:10006000DF5008E12C0EE66E030EE66E87D8E552EF
:10007000E55253D0050EE66E030EE66E7FD8E552CC
:10008000E552030EDB6A040EDB6A030EDBCF0BF0D6
:10009000040EDBCF0CF0D8900C5004E6070E0B5C7E
:1000A000000E0C583AE2030EDBCF06F0040EDBCF55
:1000B00007F0DF50065204E0E8427F0B0606FCE141
:1000C000010B25E0FA0EE66E020EE66E57D8E552F9
:1000D000E552030EDBCF0BF0040EDBCF0CF0310E3C
:1000E0000B24E66E3ED8E552ED0EE66E020EE66E8D
:1000F00045D8E552E552010EF36E030EDB5004E0E5
:10010000D890F336E806FCE1F350E81C8A16030E9B
:10011000DB2A040E01E3DB2AB8D708D08A6ACA0EAC
:10012000E66E020EE66E2AD8E552E552D00EE66E75
:10013000070EE66E8CD8E552E5527AD7050EE15CE3
:1001400002E2E16AE552E16EE552E7CFD9FF120023
:10015000949C948E240EAC6E900EAB6E330EAF6EEC
:100160001200D9CFE6FFE1CFD9FFACA2FED7FE0E39
:10017000DB50AD6EE552E7CFD9FF1200D9CFE6FFD5
:10018000E1CFD9FFFD0EDBCFF6FFFE0EDBCFF7FF91
:100190000800F55011E0FD0EDBCFF6FFFE0EDBCFC1
:1001A000F7FF0800F550E66EDCDFE552FD0EDB2AB6
:1001B000FE0E01E3DB2AE6D7E552E7CFD9FF1200B6
:1001C000010EC26EC16A940EC06E1200D9CFE6FF56
:1001D000E1CFD9FF020EE126FE0EDB500F0BF36ECE
:1001E000F346F346C30EC214F310C26EDE6ADD6A34
:1001F000DECF0BF0DDCF0CF0D8900C5004E6140EDF
:100200000B5C000E0C5805E2DF2A010E01E3DB2A2D
:10021000EFD7C282C2B2FED7C4500D6E0DC00EF031
:100220000D6AC35000010D240B6E000E0E200C6EE3
:100230000BC0F3FF0CC0F4FF020EE15C03E200D040
:10024000E16AE552E16EE552E7CFD9FF1200D9CF5E
:10025000E6FFE1CFD9FF040EE126DE6ADD6ADECFDC
:100260000BF0DDCF0CF0FD0EDBCF0DF0FE0EDBCF83
:100270000EF00D500B5C0E500C581DE2020EDB6AA6
:10028000030EDB6A020EDBCF0BF0030EDBCF0CF0AC
:10029000D8900C5004E6A50E0B5C000E0C5806E23C
:1002A000020EDB2A030E01E3DB2AECD7DF2A010E64
:1002B00001E3DB2AD4D7040EE15C02E2E16AE552F5
:0A02C000E16EE552E7CFD9FF12000E
:0602CA00537461747573AA
:1002D0003A2044617974696D65202D20416C6C2051
:1002E0006C616D7073204F4646200D0A00206973C3
:1002F0002062726F6B656E0D0A002D2D2D3E204C15
:10030000616D702000414C4552543A204E69676837
:1003100074202D204C616D70206661756C747320A3
:100320006465746563746564210D0A0053746174B7
:1003300075733A204E69676874202D20414C4C201B
:100340004C616D7073206172652072756E6E696E9E
:10035000672070726F7065726C79202D204E6F204F
:100360004661756C740D0A00536D617274204369A7
:1003700074792053797374656D20496E697469616D
:0B0380006C697A65642E2E2E0D0A00B9
:04038C00060EF66EF5
:10039000000EF76E000EF86E00010900F550856F33
:1003A0000900F550866F03E1856701D03DD0090053
:1003B000F550806F0900F550816F0900F550826F8C
:1003C00009000900F550E96E0900F550EA6E0900D0
:1003D00009000900F550836F0900F550846F09008A
:1003E0000900F6CF87F0F7CF88F0F8CF89F080C00A
:1003F000F6FF81C0F7FF82C0F8FF0001835302E1DE
:10040000845307E00900F550EE6E8307F8E2840795
:10041000F9D787C0F6FF88C0F7FF89C0F8FF000151
:0A0420008507000E865BBFD71200AF
:06042A00000EF36E00EE6F
:1004300000F0060E01D81200EA6002D0EE6AFCD786
:0A044000F350E9601200EE6AFCD7E9
:06044A0015EE00F025EEA6
:1004500000F0F86A0A9CC6EC01F033EC02F004EC00
:0604600000F0FBD71200C2
:02046600120082
:00000001FF
